{
  "contractName": "CropQuality",
  "abi": [
    {
      "inputs": [
        {
          "internalType": "string",
          "name": "",
          "type": "string"
        }
      ],
      "name": "qualities",
      "outputs": [
        {
          "internalType": "string",
          "name": "productId",
          "type": "string"
        },
        {
          "internalType": "string",
          "name": "quality",
          "type": "string"
        },
        {
          "internalType": "address",
          "name": "inspector",
          "type": "address"
        }
      ],
      "stateMutability": "view",
      "type": "function",
      "constant": true
    },
    {
      "inputs": [
        {
          "internalType": "string",
          "name": "_productId",
          "type": "string"
        },
        {
          "internalType": "string",
          "name": "_quality",
          "type": "string"
        }
      ],
      "name": "addQuality",
      "outputs": [],
      "stateMutability": "nonpayable",
      "type": "function"
    },
    {
      "inputs": [
        {
          "internalType": "string",
          "name": "_productId",
          "type": "string"
        }
      ],
      "name": "getQuality",
      "outputs": [
        {
          "components": [
            {
              "internalType": "string",
              "name": "productId",
              "type": "string"
            },
            {
              "internalType": "string",
              "name": "quality",
              "type": "string"
            },
            {
              "internalType": "address",
              "name": "inspector",
              "type": "address"
            }
          ],
          "internalType": "struct CropQuality.Quality",
          "name": "",
          "type": "tuple"
        }
      ],
      "stateMutability": "view",
      "type": "function",
      "constant": true
    }
  ],
  "bytecode": "0x608060405234801561001057600080fd5b50610d24806100206000396000f3fe608060405234801561001057600080fd5b50600436106100415760003560e01c80632f18eecb1461004657806332c267e214610062578063354b5ae514610092575b600080fd5b610060600480360381019061005b91906106af565b6100c4565b005b61007c60048036038101906100779190610727565b6101fc565b6040516100899190610887565b60405180910390f35b6100ac60048036038101906100a79190610727565b6103ae565b6040516100bb93929190610902565b60405180910390f35b600080836040516100d59190610983565b908152602001604051809103902060000180546100f1906109c9565b905014610133576040517f08c379a000000000000000000000000000000000000000000000000000000000815260040161012a90610a46565b60405180910390fd5b60405180606001604052808381526020018281526020013373ffffffffffffffffffffffffffffffffffffffff168152506000836040516101749190610983565b908152602001604051809103902060008201518160000190816101979190610c1c565b5060208201518160010190816101ad9190610c1c565b5060408201518160020160006101000a81548173ffffffffffffffffffffffffffffffffffffffff021916908373ffffffffffffffffffffffffffffffffffffffff1602179055509050505050565b61020461051e565b6000826040516102149190610983565b908152602001604051809103902060405180606001604052908160008201805461023d906109c9565b80601f0160208091040260200160405190810160405280929190818152602001828054610269906109c9565b80156102b65780601f1061028b576101008083540402835291602001916102b6565b820191906000526020600020905b81548152906001019060200180831161029957829003601f168201915b505050505081526020016001820180546102cf906109c9565b80601f01602080910402602001604051908101604052809291908181526020018280546102fb906109c9565b80156103485780601f1061031d57610100808354040283529160200191610348565b820191906000526020600020905b81548152906001019060200180831161032b57829003601f168201915b505050505081526020016002820160009054906101000a900473ffffffffffffffffffffffffffffffffffffffff1673ffffffffffffffffffffffffffffffffffffffff1673ffffffffffffffffffffffffffffffffffffffff16815250509050919050565b6000818051602081018201805184825260208301602085012081835280955050505050506000915090508060000180546103e7906109c9565b80601f0160208091040260200160405190810160405280929190818152602001828054610413906109c9565b80156104605780601f1061043557610100808354040283529160200191610460565b820191906000526020600020905b81548152906001019060200180831161044357829003601f168201915b505050505090806001018054610475906109c9565b80601f01602080910402602001604051908101604052809291908181526020018280546104a1906109c9565b80156104ee5780601f106104c3576101008083540402835291602001916104ee565b820191906000526020600020905b8154815290600101906020018083116104d157829003601f168201915b5050505050908060020160009054906101000a900473ffffffffffffffffffffffffffffffffffffffff16905083565b60405180606001604052806060815260200160608152602001600073ffffffffffffffffffffffffffffffffffffffff1681525090565b6000604051905090565b600080fd5b600080fd5b600080fd5b600080fd5b6000601f19601f8301169050919050565b7f4e487b7100000000000000000000000000000000000000000000000000000000600052604160045260246000fd5b6105bc82610573565b810181811067ffffffffffffffff821117156105db576105da610584565b5b80604052505050565b60006105ee610555565b90506105fa82826105b3565b919050565b600067ffffffffffffffff82111561061a57610619610584565b5b61062382610573565b9050602081019050919050565b82818337600083830152505050565b600061065261064d846105ff565b6105e4565b90508281526020810184848401111561066e5761066d61056e565b5b610679848285610630565b509392505050565b600082601f83011261069657610695610569565b5b81356106a684826020860161063f565b91505092915050565b600080604083850312156106c6576106c561055f565b5b600083013567ffffffffffffffff8111156106e4576106e3610564565b5b6106f085828601610681565b925050602083013567ffffffffffffffff81111561071157610710610564565b5b61071d85828601610681565b9150509250929050565b60006020828403121561073d5761073c61055f565b5b600082013567ffffffffffffffff81111561075b5761075a610564565b5b61076784828501610681565b91505092915050565b600081519050919050565b600082825260208201905092915050565b60005b838110156107aa57808201518184015260208101905061078f565b60008484015250505050565b60006107c182610770565b6107cb818561077b565b93506107db81856020860161078c565b6107e481610573565b840191505092915050565b600073ffffffffffffffffffffffffffffffffffffffff82169050919050565b600061081a826107ef565b9050919050565b61082a8161080f565b82525050565b6000606083016000830151848203600086015261084d82826107b6565b9150506020830151848203602086015261086782826107b6565b915050604083015161087c6040860182610821565b508091505092915050565b600060208201905081810360008301526108a18184610830565b905092915050565b600082825260208201905092915050565b60006108c582610770565b6108cf81856108a9565b93506108df81856020860161078c565b6108e881610573565b840191505092915050565b6108fc8161080f565b82525050565b6000606082019050818103600083015261091c81866108ba565b9050818103602083015261093081856108ba565b905061093f60408301846108f3565b949350505050565b600081905092915050565b600061095d82610770565b6109678185610947565b935061097781856020860161078c565b80840191505092915050565b600061098f8284610952565b915081905092915050565b7f4e487b7100000000000000000000000000000000000000000000000000000000600052602260045260246000fd5b600060028204905060018216806109e157607f821691505b6020821081036109f4576109f361099a565b5b50919050565b7f416c726561647920657869737473000000000000000000000000000000000000600082015250565b6000610a30600e836108a9565b9150610a3b826109fa565b602082019050919050565b60006020820190508181036000830152610a5f81610a23565b9050919050565b60008190508160005260206000209050919050565b60006020601f8301049050919050565b600082821b905092915050565b600060088302610ac87fffffffffffffffffffffffffffffffffffffffffffffffffffffffffffffffff82610a8b565b610ad28683610a8b565b95508019841693508086168417925050509392505050565b6000819050919050565b6000819050919050565b6000610b19610b14610b0f84610aea565b610af4565b610aea565b9050919050565b6000819050919050565b610b3383610afe565b610b47610b3f82610b20565b848454610a98565b825550505050565b600090565b610b5c610b4f565b610b67818484610b2a565b505050565b5b81811015610b8b57610b80600082610b54565b600181019050610b6d565b5050565b601f821115610bd057610ba181610a66565b610baa84610a7b565b81016020851015610bb9578190505b610bcd610bc585610a7b565b830182610b6c565b50505b505050565b600082821c905092915050565b6000610bf360001984600802610bd5565b1980831691505092915050565b6000610c0c8383610be2565b9150826002028217905092915050565b610c2582610770565b67ffffffffffffffff811115610c3e57610c3d610584565b5b610c4882546109c9565b610c53828285610b8f565b600060209050601f831160018114610c865760008415610c74578287015190505b610c7e8582610c00565b865550610ce6565b601f198416610c9486610a66565b60005b82811015610cbc57848901518255600182019150602085019450602081019050610c97565b86831015610cd95784890151610cd5601f891682610be2565b8355505b6001600288020188555050505b50505050505056fea2646970667358221220144eb8428734b46fa2a926cfd3db3b3e1ae5a9688e3d4d50933f7bd33a3a00b864736f6c63430008150033",
  "immutableReferences": {},
  "source": "// SPDX-License-Identifier: MIT\r\npragma solidity ^0.8.21;\r\n\r\ncontract CropQuality {\r\n\r\n    struct Quality {\r\n        string productId;\r\n        string quality;\r\n        address inspector;\r\n    }\r\n\r\n    mapping(string => Quality) public qualities;\r\n\r\n    // Add quality for a product\r\n    function addQuality(string memory _productId, string memory _quality) public {\r\n\r\n        // Prevent duplicate entry\r\n        require(bytes(qualities[_productId].productId).length == 0, \"Already exists\");\r\n\r\n        qualities[_productId] = Quality(\r\n            _productId,\r\n            _quality,\r\n            msg.sender\r\n        );\r\n    }\r\n\r\n    // Get quality details\r\n    function getQuality(string memory _productId) public view returns (Quality memory) {\r\n        return qualities[_productId];\r\n    }\r\n}",
  "sourcePath": "C:\\Users\\sailee\\OneDrive\\Pictures\\Documents\\decentralized-crop-verification\\blockchain\\contracts\\CropQuality.sol",
  "compiler": {
    "name": "solc",
    "version": "0.8.21+commit.d9974bed.Emscripten.clang"
  },
  "schemaVersion": "3.4.16",
  "updatedAt": "2026-04-07T17:33:34.528Z",
  "networkType": "ethereum",
  "devdoc": {
    "kind": "dev",
    "methods": {},
    "version": 1
  },
  "userdoc": {
    "kind": "user",
    "methods": {},
    "version": 1
  }
}