{
  "contractName": "CropVerification",
  "abi": [
    {
      "inputs": [
        {
          "internalType": "string",
          "name": "_productId",
          "type": "string"
        },
        {
          "internalType": "string",
          "name": "_cropName",
          "type": "string"
        },
        {
          "internalType": "uint256",
          "name": "_quantity",
          "type": "uint256"
        }
      ],
      "name": "addCrop",
      "outputs": [],
      "stateMutability": "nonpayable",
      "type": "function"
    },
    {
      "inputs": [
        {
          "internalType": "string",
          "name": "_productId",
          "type": "string"
        }
      ],
      "name": "getCrop",
      "outputs": [
        {
          "internalType": "string",
          "name": "",
          "type": "string"
        },
        {
          "internalType": "address",
          "name": "",
          "type": "address"
        },
        {
          "internalType": "string",
          "name": "",
          "type": "string"
        },
        {
          "internalType": "uint256",
          "name": "",
          "type": "uint256"
        },
        {
          "internalType": "uint256",
          "name": "",
          "type": "uint256"
        }
      ],
      "stateMutability": "view",
      "type": "function",
      "constant": true
    }
  ],
  "bytecode": "0x608060405234801561001057600080fd5b50610c45806100206000396000f3fe608060405234801561001057600080fd5b50600436106100365760003560e01c8063414f24f51461003b578063a0a077e11461006f575b600080fd5b610055600480360381019061005091906105cc565b61008b565b6040516100669594939291906106ee565b60405180910390f35b6100896004803603810190610084919061077b565b6102e6565b005b6060600060606000806001866040516100a49190610842565b908152602001604051809103902060009054906101000a900460ff166100ff576040517f08c379a00000000000000000000000000000000000000000000000000000000081526004016100f6906108a5565b60405180910390fd5b600080876040516101109190610842565b90815260200160405180910390206040518060a0016040529081600082018054610139906108f4565b80601f0160208091040260200160405190810160405280929190818152602001828054610165906108f4565b80156101b25780601f10610187576101008083540402835291602001916101b2565b820191906000526020600020905b81548152906001019060200180831161019557829003601f168201915b505050505081526020016001820160009054906101000a900473ffffffffffffffffffffffffffffffffffffffff1673ffffffffffffffffffffffffffffffffffffffff1673ffffffffffffffffffffffffffffffffffffffff168152602001600282018054610221906108f4565b80601f016020809104026020016040519081016040528092919081815260200182805461024d906108f4565b801561029a5780601f1061026f5761010080835404028352916020019161029a565b820191906000526020600020905b81548152906001019060200180831161027d57829003601f168201915b5050505050815260200160038201548152602001600482015481525050905080600001518160200151826040015183606001518460800151955095509550955095505091939590929450565b6001836040516102f69190610842565b908152602001604051809103902060009054906101000a900460ff1615610352576040517f08c379a000000000000000000000000000000000000000000000000000000000815260040161034990610971565b60405180910390fd5b6040518060a001604052808481526020013373ffffffffffffffffffffffffffffffffffffffff1681526020018381526020018281526020014281525060008460405161039f9190610842565b908152602001604051809103902060008201518160000190816103c29190610b3d565b5060208201518160010160006101000a81548173ffffffffffffffffffffffffffffffffffffffff021916908373ffffffffffffffffffffffffffffffffffffffff160217905550604082015181600201908161041f9190610b3d565b506060820151816003015560808201518160040155905050600180846040516104489190610842565b908152602001604051809103902060006101000a81548160ff021916908315150217905550505050565b6000604051905090565b600080fd5b600080fd5b600080fd5b600080fd5b6000601f19601f8301169050919050565b7f4e487b7100000000000000000000000000000000000000000000000000000000600052604160045260246000fd5b6104d982610490565b810181811067ffffffffffffffff821117156104f8576104f76104a1565b5b80604052505050565b600061050b610472565b905061051782826104d0565b919050565b600067ffffffffffffffff821115610537576105366104a1565b5b61054082610490565b9050602081019050919050565b82818337600083830152505050565b600061056f61056a8461051c565b610501565b90508281526020810184848401111561058b5761058a61048b565b5b61059684828561054d565b509392505050565b600082601f8301126105b3576105b2610486565b5b81356105c384826020860161055c565b91505092915050565b6000602082840312156105e2576105e161047c565b5b600082013567ffffffffffffffff811115610600576105ff610481565b5b61060c8482850161059e565b91505092915050565b600081519050919050565b600082825260208201905092915050565b60005b8381101561064f578082015181840152602081019050610634565b60008484015250505050565b600061066682610615565b6106708185610620565b9350610680818560208601610631565b61068981610490565b840191505092915050565b600073ffffffffffffffffffffffffffffffffffffffff82169050919050565b60006106bf82610694565b9050919050565b6106cf816106b4565b82525050565b6000819050919050565b6106e8816106d5565b82525050565b600060a0820190508181036000830152610708818861065b565b905061071760208301876106c6565b8181036040830152610729818661065b565b905061073860608301856106df565b61074560808301846106df565b9695505050505050565b610758816106d5565b811461076357600080fd5b50565b6000813590506107758161074f565b92915050565b6000806000606084860312156107945761079361047c565b5b600084013567ffffffffffffffff8111156107b2576107b1610481565b5b6107be8682870161059e565b935050602084013567ffffffffffffffff8111156107df576107de610481565b5b6107eb8682870161059e565b92505060406107fc86828701610766565b9150509250925092565b600081905092915050565b600061081c82610615565b6108268185610806565b9350610836818560208601610631565b80840191505092915050565b600061084e8284610811565b915081905092915050565b7f50726f64756374206e6f7420666f756e64000000000000000000000000000000600082015250565b600061088f601183610620565b915061089a82610859565b602082019050919050565b600060208201905081810360008301526108be81610882565b9050919050565b7f4e487b7100000000000000000000000000000000000000000000000000000000600052602260045260246000fd5b6000600282049050600182168061090c57607f821691505b60208210810361091f5761091e6108c5565b5b50919050565b7f50726f6475637420494420616c72656164792065786973747300000000000000600082015250565b600061095b601983610620565b915061096682610925565b602082019050919050565b6000602082019050818103600083015261098a8161094e565b9050919050565b60008190508160005260206000209050919050565b60006020601f8301049050919050565b600082821b905092915050565b6000600883026109f37fffffffffffffffffffffffffffffffffffffffffffffffffffffffffffffffff826109b6565b6109fd86836109b6565b95508019841693508086168417925050509392505050565b6000819050919050565b6000610a3a610a35610a30846106d5565b610a15565b6106d5565b9050919050565b6000819050919050565b610a5483610a1f565b610a68610a6082610a41565b8484546109c3565b825550505050565b600090565b610a7d610a70565b610a88818484610a4b565b505050565b5b81811015610aac57610aa1600082610a75565b600181019050610a8e565b5050565b601f821115610af157610ac281610991565b610acb846109a6565b81016020851015610ada578190505b610aee610ae6856109a6565b830182610a8d565b50505b505050565b600082821c905092915050565b6000610b1460001984600802610af6565b1980831691505092915050565b6000610b2d8383610b03565b9150826002028217905092915050565b610b4682610615565b67ffffffffffffffff811115610b5f57610b5e6104a1565b5b610b6982546108f4565b610b74828285610ab0565b600060209050601f831160018114610ba75760008415610b95578287015190505b610b9f8582610b21565b865550610c07565b601f198416610bb586610991565b60005b82811015610bdd57848901518255600182019150602085019450602081019050610bb8565b86831015610bfa5784890151610bf6601f891682610b03565b8355505b6001600288020188555050505b50505050505056fea2646970667358221220677e057ecd88e6867cfe9644de9202ea35b2f18ea088607805b135c48642b42a64736f6c63430008150033",
  "immutableReferences": {},
  "source": "// SPDX-License-Identifier: MIT\r\npragma solidity ^0.8.21;\r\n\r\ncontract CropVerification {\r\n\r\n    // Structure to store crop data\r\n    struct Crop {\r\n        string productId;\r\n        address farmer;\r\n        string cropName;\r\n        uint quantity;\r\n        uint timestamp;\r\n    }\r\n\r\n    // Mapping to store crops using productId\r\n    mapping(string => Crop) private crops;\r\n\r\n    // Mapping to check if product already exists\r\n    mapping(string => bool) private exists;\r\n\r\n    // Function to add crop data\r\n    function addCrop(string memory _productId, string memory _cropName, uint _quantity) public {\r\n\r\n        // Prevent duplicate product IDs\r\n        require(!exists[_productId], \"Product ID already exists\");\r\n\r\n        // Store crop data\r\n        crops[_productId] = Crop({\r\n            productId: _productId,\r\n            farmer: msg.sender,\r\n            cropName: _cropName,\r\n            quantity: _quantity,\r\n            timestamp: block.timestamp\r\n        });\r\n\r\n        // Mark as existing\r\n        exists[_productId] = true;\r\n    }\r\n\r\n    // Function to get crop data\r\n    function getCrop(string memory _productId) public view returns (\r\n        string memory,\r\n        address,\r\n        string memory,\r\n        uint,\r\n        uint\r\n    ) {\r\n        require(exists[_productId], \"Product not found\");\r\n\r\n        Crop memory c = crops[_productId];\r\n\r\n        return (\r\n            c.productId,\r\n            c.farmer,\r\n            c.cropName,\r\n            c.quantity,\r\n            c.timestamp\r\n        );\r\n    }\r\n}",
  "sourcePath": "C:\\Users\\sailee\\OneDrive\\Pictures\\Documents\\decentralized-crop-verification\\blockchain\\contracts\\CropVerification.sol",
  "compiler": {
    "name": "solc",
    "version": "0.8.21+commit.d9974bed.Emscripten.clang"
  },
  "schemaVersion": "3.4.16",
  "updatedAt": "2026-04-06T18:33:55.129Z",
  "networkType": "ethereum",
  "devdoc": {
    "kind": "dev",
    "methods": {},
    "version": 1
  },
  "userdoc": {
    "kind": "user",
    "methods": {},
    "version": 1
  }
}